:100000000C9434000C9449000C9449000C94490061
:100010000C9449000C9449000C9449000C9449003C
:100020000C9449000C9449000C9449000C9449002C
:100030000C9449000C9449000C9449000C9449001C
:100040000C9449000C9449000C9449000C9449000C
:100050000C9449000C9449000C9449000C944900FC
:100060000C9449000C94490011241FBECFEFD8E036
:10007000DEBFCDBF12E0A0E0B1E0ECEAF3E002C0E9
:1000800005900D92AC39B107D9F70E9436010C9456
:10009000D4010C9400001092B90084E18093B80060
:1000A00084E08093BC00089584EA8093BC00809132
:1000B000BC008823E4F7089584E98093BC008FE9AD
:1000C0009FE00197F1F700C0000008958093BB0006
:1000D00084EC8093BC008091BC008823E4F70895F1
:1000E0000E9454008EE40E9466008FEF0E9466001A
:1000F0002FEF89EF90E0215080409040E1F700C061
:10010000000084E30E94660080E30E9466008FE3A3
:100110009CE90197F1F700C0000084E30E946600AB
:1001200080E30E9466008FE99FE00197F1F700C02D
:10013000000084E30E94660080E30E9466008FE96D
:100140009FE00197F1F700C0000084E20E94660082
:1001500080E20E9466008FE99FE00197F1F700C0FE
:1001600000000E945C000895CF93DF93C82F0E9487
:1001700054008EE40E946600DC2FD07F8D2F8C60AF
:100180000E9466008D2F88600E94660080E1C89FF3
:10019000E00111248C2F8C600E9466008C2F0E943D
:1001A00066000E945C008FE39FE10197F1F700C0B9
:1001B00000008FE39FE10197F1F700C00000DF919D
:1001C000CF9108950E944B000E9470008CE20E9423
:1001D000B4008CE00E94B40086E00E94B40080E885
:1001E0000E94B4000895CF93DF93C82F0E9454005B
:1001F0008EE40E946600DC2FD07F8D2F8D600E94E0
:1002000066008D2F89600E94660080E1C89FE00132
:1002100011248C2F8D600E9466008C2F89600E94B3
:1002200066000E945C008FE39FE10197F1F700C038
:1002300000008FE39FE10197F1F700C00000DF911C
:10024000CF910895E62FF0E0E150FF4F9081890FA4
:1002500081580E94B400089581E00E94B4008FE3A9
:100260009FE10197F1F700C000000895CF93DF935D
:10027000CDB7DEB7C959D1400FB6F894DEBF0FBE77
:10028000CDBF0E944B000E94E20029E931E0E2E08C
:10029000F1E0CE010196DC0101900D922150304039
:1002A000D9F7FC0101900020E9F731976F01C81AD6
:1002B000D90A00E010E00E942C01E12CF12C20C0B2
:1002C00061E081E08E0D0E942201C801B6010E940A
:1002D000AC01E1E0F0E0EC0FFD1FE80FF91F8081B9
:1002E0000E94F3000F5F1F4F2FEF83EC99E0215026
:1002F00080409040E1F700C000002FEFE21AF20AC0
:1003000080E1E816F104E4F2E12CF12C20C062E077
:1003100081E08E0D0E942201C801B6010E94AC014D
:10032000E1E0F0E0EC0FFD1FE80FF91F80810E9473
:10033000F3000F5F1F4F9FEF23EC89E091502040A7
:100340008040E1F700C000009FEFE91AF90A20E1C0
:10035000E216F104E4F2AFCF97FB072E16F40094F7
:1003600007D077FD09D00E94C00107FC05D03EF4FC
:10037000909581959F4F0895709561957F4F089551
:10038000AA1BBB1B51E107C0AA1FBB1FA617B707BB
:1003900010F0A61BB70B881F991F5A95A9F78095D7
:0C03A0009095BC01CD010895F894FFCFAA
:1003AC000040696E206D6F6C6C6973206E756E63A6
:1003BC00207365642069642073656D7065722072AA
:1003CC006973757320696E2068656E6472657269F5
:1003DC007420677261766964612072757472756DD0
:1003EC002071756973717565206E6F6E2074656C04
:1003FC006C7573206F72636920616320617563741F
:10040C006F72206175677565206D617572697320F7
:10041C006175677565206E657175652067726176AB
:10042C0069646120696E206665726D656E74756DA8
:10043C0020657420736F6C6C696369747564696E84
:10044C00206163206F7263692070686173656C6CE6
:10045C00757320656765737461732074656C6C7556
:10046C00732072757472756D2074656C6C75732065
:10047C0070656C6C656E746573717565206575203F
:10048C0074696E636964756E7420746F72746F72C4
:10049C0020616C697175616D206E756C6C61206684
:1004AC006163696C6973692063726173206665723C
:1004BC006D656E74756D206F64696F20657520664F
:1004CC00657567696174207072657469756D206EED
:1004DC0069626820697073756D20636F6E736571E6
:1004EC00756174206E69736C2076656C2070726512
:1004FC007469756D206C6563747573207175616DAD
:10050C00206964206C656F20696E20766974616562
:10051C0020747572706973206D61737361207365DB
:10052C006420656C656D656E74756D2074656D7099
:0C053C00757320656765737461730000BF
:04000003000000A851
:00000001FF
