:020000020000FC
:1000000008E00EBF0FEF0DBF20982198259A289A7F
:10001000299A05E005BD03B1003051F003B101306C
:10002000D1F003B1023051F103B10330D1F1F3CF7C
:100030002D9A0E941F002D980E941F00ECCF10E007
:1000400016BD20E016B51A3FE9F710E016BD23955E
:100050002E33C1F708952D9A0E9432002D980E94E8
:100060003200D9CF10E016BD20E016B51A3FE9F7EF
:1000700010E016BD23952931C1F708952D9A0E94ED
:1000800045002D980E944500C6CF10E016BD20E027
:1000900016B51A3FE9F710E016BD23952230C1F7D7
:1000A00008952D9A0E9458002D980E945800B3CFB1
:1000B00010E016BD20E016B51A3FE9F710E016BDB6
:0800C00023952130C1F70895DA
:00000001FF
