:020000020000FC
:1000000008E00EBF0FEF0DBF20982198259A289A7F
:10001000299A03B1003051F003B1013009F103B165
:100020000230C1F103B103304FC0F3CF2D9A0E94CB
:100030001D002D980E941D00ECCFE1EEE09385009D
:10004000EBE7E0938400F0E0F0938000F5E0F093BC
:100050008100B09BFECFB09AEFEFE093810008954E
:100060002D9A0E9437002D980E943700D2CFE3EFDF
:10007000E0938500EBECE0938400F0E0F0938000E7
:10008000F4E0F0938100B09BFECFB09AEFEFE093E5
:10009000810008952D9A0E9451002D980E945100D0
:1000A000B8CFEFEFE0938500E4E6E0938400F0E062
:1000B000F0938000F5E0F0938100B09BFECFB09A02
:1000C000EFEFE093810008952D9A0E946B002D9828
:1000D0000E946B009ECFEFEFE0938500EDEFE09381
:1000E0008400F0E0F0938000F4E0F0938100B09B96
:0C00F000FECFB09AEFEFE093810008957E
:00000001FF
